:020000040800F2
:10000000E00400209D01000827190008AF15000832
:100010002519000859060008911C0008000000007E
:100020000000000000000000000000005D1A000851
:100030005B06000800000000291900085F1A00088C
:10004000B7010008B7010008B7010008B7010008B0
:10005000B7010008B7010008B7010008B7010008A0
:10006000B7010008B7010008B7010008B701000890
:10007000B7010008B7010008B7010008B701000880
:10008000B7010008B7010008B7010008B701000870
:10009000B7010008B7010008B7010008B701000860
:1000A000B7010008B7010008B7010008B701000850
:1000B000B7010008B7010008B7010008B701000840
:1000C000B7010008B7010008B7010008B701000830
:1000D000B7010008B7010008B7010008B701000820
:1000E000B7010008B7010008B7010008B701000810
:1000F000B7010008B7010008B7010008B701000800
:10010000B7010008B7010008B7010008B7010008EF
:10011000B7010008B7010008B7010008B7010008DF
:10012000B7010008B7010008B7010008B7010008CF
:10013000B7010008B7010008B7010008B7010008BF
:10014000B7010008B7010008B7010008B7010008AF
:10015000B7010008B7010008B7010008B70100089F
:10016000B7010008B7010008B7010008B70100088F
:10017000B7010008B7010008B7010008000000003F
:10018000B7010008B7010008DFF80CD000F086F9CD
:1001900000480047611E0008E00400200648804730
:1001A00006480047FEE7FEE7FEE7FEE7FEE7FEE75C
:1001B000FEE7FEE7FEE7FEE7FD1A000889010008FA
:1001C0002DE9F05F0546002092469B46884606468C
:1001D000814640241BE0284641464746224600F01F
:1001E000EFF853465A46C01A914110D311461846AB
:1001F000224600F0D6F82D1A67EB01084F4622463A
:100200000120002100F0CDF817EB00094E41201E1F
:10021000A4F10104DFDC484631462A464346BDE8E6
:10022000F09FD2B201E000F8012B491EFBD27047CB
:100230000022F6E710B513460A4604461946FFF7B2
:10024000F0FF204610BD2DE9FE4F81EA030404F0C3
:10025000004421F0004100944FF0000B23F00043D4
:1002600050EA01045ED052EA03045BD0C3F30A549F
:10027000C1F30A552C44A4F2F3340194A0FB0254B8
:10028000C1F3130141F48011C3F3130343F480134A
:1002900001FB024400FB034E840A970A44EA81549E
:1002A00047EA8357A4FB076802958D0A05FB07857B
:1002B0004FEA932C04FB0C542705029D4FEA065885
:1002C00047EA1637B5EB08056EEB070C870E920E62
:1002D00047EA811742EA8312A7FB0201B6EB0B0142
:1002E00064EB00042B0D43EA0C335E1844EB1C5006
:1002F000DA465146E7FB0201C5F313044FEA0B331C
:1003000043EA14534FEA0432019C43EA0603A4F182
:100310000C040294009CCDE900B400F070F803B026
:10032000BDE8F08F00200146F9E70EB540F23341F9
:1003300002910021CDE900110A460B4600F05FF85A
:1003400003B000BDC1F30A5210B5C1F3130140F26E
:10035000FF3341F480119A4201DA002010BD40F2CF
:1003600033439A42A2F2334203DC524200F028F8AF
:1003700010BD904010BD30B50B4601460020202234
:10038000012409E021FA02F59D4205D303FA02F5A2
:10039000491B04FA02F52844151EA2F10102F1DC02
:1003A00030BD202A04DB203A00FA02F10020704719
:1003B0009140C2F1200320FA03F3194390407047A3
:1003C000202A04DB203A21FA02F00021704721FAAA
:1003D00002F3D040C2F12002914008431946704711
:1003E00010B5141E73F1000408DA401C41F100013D
:1003F00092185B411A4301D120F0010010BD2DE994
:10040000F04D92469B4611B1B1FA81F202E0B0FA8A
:1004100080F220329046FFF7C4FF04460F4640EAC0
:100420000A0041EA0B0153465A46084313D01146CD
:1004300053EA010019D0C8F140025046FFF7C0FF4F
:1004400005460E46504659464246FFF7AAFF084366
:1004500005D0012004E020463946BDE8F08D00209B
:10046000054346EAE0762C4337430A986305E40ADD
:10047000A0EB08000022FD0A44EA47540A3002D5E6
:1004800000200146E9E7010510196941DDE9084549
:1004900000196941BDE8F04DA2E70000064C074D88
:1004A00006E0E06840F0010394E807009847103444
:1004B000AC42F6D3FFF76CFEF81E0008181F0008C8
:1004C00010B5044C4FF40011216001F02FFA2020E8
:1004D000206010BD180802402DE9F0412DED028B7F
:1004E00000F0BEF8FFF721FF9FED4A8B53EC182B6D
:1004F000FFF7A9FEFFF726FFDFF820814546C8F881
:10050000000000F0D5F8FFF710FF53EC182BFFF7B1
:100510009AFEFFF717FF424C42F21073414A2060E7
:100520002968B1FBF3F530351570B1FBF3F503FB2A
:1005300015164FF47A75B6FBF5F630369670B1FBAA
:10054000F5F605FB16176426B7FBF6F73037D770BC
:10055000B1FBF6F706FB171C0A27BCFBF7FC0CF1F6
:10056000300C82F804C0B1FBF7FC07FB1C1C0CF13B
:10057000300C82F805C0B0FBF3FC2B4A0CF1300CB8
:1005800082F800C0B0FBF3FC03FB1C03B3FBF5F3E4
:1005900030339370B0FBF5F305FB1303B3FBF6F3B5
:1005A0003033D370B0FBF6F306FB1303B3FBF7F362
:1005B00030331371B0FBF7F307FB13003030507189
:1005C0001AA001F067FB1DA0216801F063FB206801
:1005D00042F23411884201D9012100E0002142F2A7
:1005E0000802904201D2012000E00020014308D01F
:1005F0000A2000F0EDF800202060BDEC028BBDE881
:10060000F081D8F8001011A0BDEC028BBDE8F041DC
:1006100001F040BB5EE85DE85DE8FD3F08000020BA
:1006200014000020000000200C0000206C5F6E63AE
:100630006D5F313A202564200D0A00006C5F6E6307
:100640006D5F323A202564200D0A00006C5F6E63F6
:100650006D5F312025640000FEE7704772B6FEE74B
:1006600070B5012000F0A4FF012000F0B1F839209E
:10067000FFF726FF0D4C1021204600F0B3F90028AB
:10068000F9D00A4C4FF4001018342060FF2001F01C
:100690004DF90546FF2001F049F901462020206070
:1006A0004FF6FF7000EA0520084370BD00080240C5
:1006B00070B5022000F07CFF012000F089F838209E
:1006C000FFF7FEFE0D4C1021204600F08BF90028AC
:1006D000F9D00A4C4FF4001018342060FF2001F0CC
:1006E00025F90546FF2001F021F901462020206070
:1006F0004FF6FF7000EA0520084370BD0008024075
:1007000070B54379012B1CD0012646710223037179
:1007100005682B6802F0100440F6FE72A240934375
:10072000D1E900210A43A2401A432A6001680A68FD
:10073000C023A3409A430A60067100214171084614
:1007400070BD022070BD70B5040003D02079002573
:1007500010B105E0012070BD6571204600F008F879
:1007600002202071256101202071002070BD000051
:1007700010B586B0044614216846FFF759FD1149AB
:10078000206888421CD110480021026842F00052C3
:100790000260006800F0005005900B4810380268B5
:1007A00042F001020260006800F001000590102094
:1007B00000900320CDE901016946044800F01AF8D1
:1007C00006B010BD007400404038024000000240F6
:1007D00070B5044600F010F90546601C02D00448CC
:1007E0000078044400F008F9401BA042FAD370BD21
:1007F0001C0000202DE9F84FDFF8BCA100220125E4
:1008000003264FF00F090AF1040BAAF1040E00BFF2
:100810000B6805FA02F42340A34270D10F7907F068
:100820000307012F01D0022F16D187684FEA420833
:1008300006FA08FC27EA0C07D1F80CC00CFA08FCF1
:100840004CEA070CC0F808C04768A7430C79C4F30A
:10085000001494403C4344600C79E443A4070AD05C
:10086000C4684FEA420C06FA0CF7BC438F6807FADB
:100870000CF72743C7600C7904F00304022C12D153
:10088000D40800EB840CDCF820405707FF0E09FA6F
:1008900007F824EA0804D1F8108008FA07F848EAB3
:1008A0000408CCF8208004684FEA420C06FA0CF7E2
:1008B000BC430F7907F0030707FA0CF727430760DB
:1008C0004C6814F4403F70D03C4C276847F4804794
:1008D0002760246822F0030704F480440094384C15
:1008E00007EB040CDCF8084897074FEA177809FA79
:1008F00008F7BC43334FB84202D1002724E054E04C
:10090000314FB84201D101271EE0304FB84201D12A
:10091000022719E02E4FB84201D1032714E02D4FD2
:10092000B84201D104270FE02B4FB84201D105276F
:100930000AE02A4FB84201D1062705E0284FB84205
:1009400001D1072700E0082707FA08F72743CCF86A
:100950000878DAF800405746D1F804C09C435FEAB3
:10096000CC2C00D51C433C60DBF800405F46D1F83E
:1009700004C09C435FEA8C2C00D51C433C60DEF82D
:1009800000407746D1F804C09C435FEA8C3C00D518
:100990001C433C60084F083F3C68D1F804C09C43AE
:1009A0005FEACC3C00D51C433C60521C102AFFF48B
:1009B0002FAFBDE8F88F0000083C014044380240EA
:1009C00000300140000002400004024000080240E4
:1009D000000C0240001002400014024000180240C7
:1009E000001C02400069084000D0012070470AB195
:1009F000816170470904FBE7014880687047000087
:100A00001C00002002488168027811448160704710
:100A10001C0000200B4810B5016841F40071016012
:100A2000016841F480610160016841F480710160F6
:100A3000032000F063F8002000F006F800F024F82E
:100A4000002010BD003C024070B50D4D04464FF42F
:100A50007A712878B1FBF0F00A490968B1FBF0F02F
:100A600000F0D1FC48B9102C07D200222146501EBC
:100A700000F024F800206C6070BD012070BD000003
:100A80001C000020280000200B4882B0016841F4BF
:100A900080410160006800F4804000900648001F1B
:100AA000016841F080510160006800F080500090C2
:100AB000052002B000F022B844380240F0B40E4BDA
:100AC0001B680C46C3F30223C3F10705042D00D9AC
:100AD0000425191D072901D2002300E0DB1E012691
:100AE00006FA05F1491E214099409E40761E1640A7
:100AF0003143F0BC01F0DEB80CED00E0064900F037
:100B0000070208684FF6FF03184040EA0220034A34
:100B100010430860704700000CED00E00000FA058B
:100B20002DE9F0470E46050065D0DFF81481D8F8AE
:100B30000000F7B200F00700B04207D288F800705A
:100B4000D8F8000000F00700B04254D128683D4CAE
:100B5000810712D5400703D5206840F4E05020609B
:100B60002878000703D5206840F4604020602068A2
:100B7000A96820F0F000084320602878C0072DD035
:100B8000304968680839012812D0022813D0032898
:100B900011D00968890700292DDA216821F00301A5
:100BA00001432160FFF728FF814641F2883A0EE0B9
:100BB00009688903EFE709688901ECE7FFF71CFF83
:100BC000A0EB0901514502D90320BDE8F087206858
:100BD000696800F00C00B0EB810FEFD1D8F800107D
:100BE000404601F00701B14207D90770006800F0E4
:100BF0000700B04201D00120E7E72878400705D57B
:100C00002068E96820F4E050084320602878000755
:100C100006D52068296920F4604040EAC1002060C0
:100C200000F038F82168084AC1F30311515CC8404C
:100C30000649086006480068FFF706FF0020C4E781
:100C4000003C024008380240E01E00082800002056
:100C5000200000200448054900680968044AC1F3DF
:100C60008221515CC84070472800002008380240AB
:100C7000F01E00080448054900680968044AC1F3E9
:100C80004231515CC84070472800002008380240BB
:100C9000F01E0008154810B5006810F00C0214484A
:100CA00013D04110042A0FD0082A0ED10F4C241F54
:100CB0002268236802F03F025B0207D52068C0F378
:100CC0008810A0FB010106E0084610BD2168C1F3B1
:100CD0008811A1FB00010023FFF772FA2168C1F31C
:100CE0000141491C4900B0FBF1F010BD0838024039
:100CF0000024F4002DE9F84F04006ED02078DFF8CE
:100D00004C93C007A9F104054AD009F10400016819
:100D1000C1F38101012908D00068C0F381000228D5
:100D20000AD1D9F80000400206D52868800337D5DB
:100D300060680028E1D033E06068B0F5803F10D0F3
:100D4000B0F5A02F286810D020F4803028602868E3
:100D500020F4802028606068A8B1FFF74DFE0646A9
:100D60000DE0286840F48030F4E740F480202860EB
:100D7000F7E700BFFFF740FE801B642873D82868A0
:100D80008003F7D50CE0FFF737FE064605E000BF0D
:100D9000FFF732FE801B6428F0D828688003F7D460
:100DA0002078DFF8AC8280074FF0000A3ED5A748D4
:100DB000001D016811F00C0F08D00068C0F381001D
:100DC00002280BD1D9F80000400207D42868800718
:100DD00016D5E068012800D112E033E1E068B8B12F
:100DE0000120C8F80000FFF707FE064605E000BF37
:100DF000FFF702FE801B0228C0D828688007F7D5BD
:100E00002868216920F0F80040EAC10028600DE060
:100E1000C8F800A0FFF7F0FD064604E0FFF7ECFD80
:100E2000801B02281FD828688007F7D42078000785
:100E300022D5864F87486169703771B10121016001
:100E4000FFF7DAFD064604E0FFF7D6FD801B022817
:100E500009D838688007F7D50EE0C0F800A0FFF782
:100E6000CBFD064605E082E0FFF7C6FD801B0228A9
:100E70007DD838688007F7D42078400768D5DFF838
:100E8000CCB100270BF13C0BDBF80000C0000BD409
:100E9000DBF8001041F08051CBF80010DBF80000C7
:100EA000012700F0805000906B4E3068C00510D4D0
:100EB000306840F480703060FFF79EFD009005E0E0
:100EC000FFF79AFD0099401A022850D83068C005F3
:100ED000F6D55E4EA0686C3601280FD00528306824
:100EE00010D020F001003060306820F00400306045
:100EF000A068B8B1FFF780FD00900FE0306840F0C7
:100F00000100F4E740F004003060F7E7FFF774FDFC
:100F10000099411A41F28830814266D830688007D2
:100F2000F4D50EE0FFF768FD009007E0FFF764FDE1
:100F30000099411A41F28830814256D830688007C2
:100F4000F4D42FB1DBF8001021F08051CBF8001061
:100F5000A069C8B33D49091D0968C1F3810102298F
:100F60004AD00228504607D0C8F8600000E03CE0B4
:100F7000FFF742FD04463BE04746C8F86000FFF734
:100F80003BFD064605E000BFFFF736FD801B02284B
:100F90002BD828688001F7D4D4E907010843A16A57
:100FA0002E4A490802EB0141626A41EA8211084374
:100FB00094F82C1040EA0161C9F80010012038664D
:100FC000FFF71AFD044606E03EE000BFFFF714FD00
:100FD000001B022809D828688001F7D534E000BF3B
:100FE000FFF70AFD001B022802D90320BDE8F88F95
:100FF00028688001F4D427E00128F7D0D9F8000050
:10100000E26900F4800191421CD1226A00F03F01A4
:10101000914217D147F6C071626A0140B1EB821F5D
:1010200010D1A26A4FF0FF3300F4403103EB5202BB
:10103000B1EB024F06D194F82C1000F07060B0EBC9
:10104000016F01D00120D1E70020CFE70438024032
:1010500000004742800E4742007000400000FFFF42
:1010600070B5040008D0606A002538B1256165615B
:1010700094F8510040B10CE0012070BD6068B0F5FB
:10108000827FF5D0E561F3E784F85050204600F008
:101090004DF8022084F851002068016821F04001D9
:1010A0000160A088218900F4827001F404410843A2
:1010B000A18901F400610843217C01F00201084389
:1010C000217D01F001010843218B01F400710843E7
:1010D000217F01F03801084394F8201001F08001CD
:1010E0000843218D01F40051084321680860A0697C
:1010F000042101EA104094F8241001F01001084383
:1011000021684860A06AB0F5005F03D1A08D216816
:1011100080B208612068C16921F40061C161656520
:10112000012084F85100002070BD000010B586B089
:10113000044614216846FFF77BF81349206888426B
:1011400020D112480021026842F4805202600068F7
:1011500000F4805005900D481438026842F00102F6
:101160000260006800F001000590E020009002207D
:10117000CDE901010320039005200490694604484D
:10118000FFF738FB06B010BD003001404438024084
:10119000000002402DE9FF4F81B04FF0000A0446E5
:1011A000CDF800A090F850000E9F1D4693464FF0DA
:1011B0000109564601280ED0012084F85000FFF79F
:1011C0001BFC804694F85100616801280DD0B1F5F0
:1011D000827F08D103E0022005B0BDE8F08FA1684E
:1011E00009B9042801D0022606E10298C0B3BBF178
:1011F000000F36D0A5B394F85100042802D0052082
:1012000084F85100C4F854A0C4F838B0E587A58725
:1012100002992163E586A586C4F840A0C4F844A0DD
:10122000A06A4FF4005B584509D12068016821F499
:10123000005101602068016841F40051016020689C
:101240000168490603D4016841F040010160E0688B
:10125000B0F5006F606806D0F0B3012D51D094E076
:10126000FFE70126C8E008B1012D43D1206B2168BA
:101270000088C860206B801C2063E08E401EE086E2
:1012800038E020688168890719D5E18EB9B1B9F1D4
:10129000010F14D1216B0988C160206B801C206371
:1012A000E08E401EE086E08E4FF0000938B9A06A5B
:1012B000584504D12068016841F4805101602068DC
:1012C0008168C9070ED0E18F61B1C068A16B088049
:1012D000A06B801CA06300E013E0E08F401EE0875D
:1012E0004FF00109FFF788FBA0EB0800B84201D3DB
:1012F000781C60D1E08E0028C3D1E08F0028C0D1D7
:1013000049E0206B216800780873206B401C206343
:10131000E08E401EE08638E020688168890719D594
:10132000E18EB9B1B9F1010F14D1216B09780173C4
:10133000206B401C2063E08E401EE086E08E4FF064
:10134000000938B9A06A584504D12068016841F401
:101350008051016020688168C9070CD0E18F51B1CC
:10136000C068A16B0870A06B401CA063E08F401E9A
:10137000E0874FF00109FFF73FFBA0EB0800B84200
:1013800002D3781C01D016E0AFB1E08E0028C3D1A3
:10139000E08F0028C0D1A06A584511D101223B46F8
:1013A00011462046CDF8008000F0FCFA28B1606DAF
:1013B00040F00200606503261EE02068C0680090CF
:1013C00020688168C90607D5616D41F00201616539
:1013D0004FF6EF718160012642463946204600F003
:1013E000B5FA18B101262020606505E0A06818B99B
:1013F0002068C16880680090012084F8510084F85A
:1014000050A03046E8E610B5401EB0F1807F01D311
:10141000012010BD4FF0E02460610F21601700F043
:1014200049FC0020A06107202061002010BD70B59C
:10143000040004D094F83D00002510B106E001201E
:1014400070BD84F83C50204600F022F8242084F837
:101450003D002068C16821F40051C160204600F0C1
:1014600055FB2068016921F49041016120684169C0
:1014700021F02A0141612068C16841F40051C16036
:101480002564202084F83D0084F83E00002070BDD3
:1014900010B586B0044614216846FEF7C9FE14490B
:1014A0002068884221D113480021026842F01002CE
:1014B0000260006800F0100005900E4814380268C1
:1014C00042F001020260006800F0010005904FF454
:1014D000C06000900220CDE90101032003900720A5
:1014E000049069460448FFF785F906B010BD000076
:1014F0000010014044380240000002402DE9F8434A
:10150000044690F83D001F4616460D4620284CD153
:10151000C5B1BEB194F83C00012846D0012084F842
:101520003C004FF00008C4F84080212084F83D00C2
:10153000FFF762FAA6848146E684A068B0F5805F72
:1015400003D004E00120BDE8F883206928B12E46CD
:101550005FF0000584F83C800EE00026FAE7802169
:10156000204600F059FBA0B9AEB116F8010B216876
:101570004860E08C401EE084E08C4B464FF0000257
:1015800000970028EBD14FF04001204600F044FBCB
:1015900030B10320D7E735F8020BC0F30800E6E7C7
:1015A000202084F83D000020CDE70220CBE7FEE7B5
:1015B00070B51C4C05464FF400102060FF2000F071
:1015C000B5F9202020600024FF20FEF779FF641C7D
:1015D000E4B2962CF8D30120FFF7FAF8012D12D0CF
:1015E000022D1ED12120FEF76BFF0F20FEF768FFB2
:1015F0001120FEF765FF4C20FEF762FF0AA0BDE850
:10160000704000F047BB2020FEF75AFF0F20FEF786
:1016100057FF1020FEF754FF4C20FEF751FF07A0A4
:10162000EDE770BD180802404368616E6E656C5F3F
:10163000325F696E69740D0A000000004368616ED4
:101640006E656C5F315F696E69740D0A00000000A1
:1016500070B51B4C1B4D012608B1267001E02078A7
:1016600048B140212846FFF7BDF958B180212846EE
:10167000FFF7B8F930B140212846FFF7B3F9012848
:1016800014D01AE00A20FFF7A3F8002020704021B0
:101690002846FFF7A7F928B180212846FFF7A2F9CD
:1016A00010B10AE0012070BD022070BD80212846E3
:1016B000FFF798F9012800D12670002070BD0000C6
:1016C00018000020001402401CB500240C490094AE
:1016D0000A48019408600846FFF735F808B1FEF79C
:1016E000BDFF0220CDE90040002269460448FFF713
:1016F00007F8002801D0FEF7B1FF1CBD00740040C0
:10170000300000202DE9F04F87B014216846FEF725
:101710008FFD5B480024016841F010010160016801
:1017200001F010010591016841F0040101600168B8
:1017300001F004010591016841F020010160016898
:1017400001F020010591016841F08001016001680C
:1017500001F080010591016841F00101016001681B
:1017600001F001010591016841F002010160016889
:1017700001F002010591016841F04001016001683A
:1017800001F040010591016841F008010160006825
:10179000DFF8F0A000F0080005900022202150465C
:1017A000FFF725F9DFF8E0B04FF40058002241467A
:1017B0005846FFF71CF94FF6FF7703250097CDE950
:1017C000015469463148FFF715F84FF6CF70CDE95F
:1017D0000005694602945046FFF70CF84FF63F703B
:1017E000CDE90005DFF8A890694602944846FFF766
:1017F00001F8C02001268DE8510069464846FEF7F1
:10180000F9FF49F60F10CDE9000569460294214819
:10181000FEF7F0FF10208DE8510069465046FEF7B4
:10182000E9FF20200090CDE9016469465046039409
:10183000FEF7E0FF4FF6F770CDE900056946029428
:101840001548FEF7D7FF4DF6FF70CDE90005694654
:1018500002945846FEF7CEFF0097CDE90154694641
:101860000E48FEF7C7FFCDF80080CDE90164694658
:1018700058460394FEF7BEFF07B0BDE8F08F0000A6
:1018800030380240000802400018024000100240B8
:10189000001402400000024000040240000C02401C
:1018A000114810B50F4901604FF482714160002169
:1018B00002228160C0E90312012242615202826168
:1018C0003822C0E9072141624FF4005181620A21A8
:1018D000C162FFF7C5FB002803D0BDE81040FEF74A
:1018E000BDBE10BD00300140440000200C4810B5C2
:1018F0000A4901604FF4E1314160002181600C220E
:10190000C160C0E904128161C161FFF790FD002848
:1019100003D0BDE81040FEF7A1BE10BD001001408D
:101920009C000020FEE7FEE77047000001B582B092
:1019300001200346009001AA02A90348FFF72AFCF0
:101940009DF804000EBD00004400002038B5044698
:101950001248134B0068B0FBF3F04FF47A7358430E
:1019600000906068B0F5827F0DD10B460092002296
:101970008021204600F016F870B1606D40F0200024
:101980006065032038BD009830B1401E009020688B
:101990008068C0430006F6D5002038BD280000202E
:1019A00000366E012DE9F8431E46914688460446EE
:1019B000089DFFF721F8401B351AFFF71DF8074671
:1019C00025480068C0F3CB30684338E0701C37D03E
:1019D000FFF712F8C01BA84203D215B1009860B3FC
:1019E0002CE02068416821F0E00141606068B0F5BA
:1019F000827F0BD1A068B0F5004F02D0B0F5806FA8
:101A000004D12068016821F040010160A06AB0F5AE
:101A1000005F09D12068016821F40051016020684D
:101A2000016841F400510160012084F85100002058
:101A300084F850000320BDE8F8830025401E009084
:101A40002068816838EA010004D000214945BDD1F1
:101A50000020F0E70121F9E7280000207047FEF799
:101A6000D1BF000030B593B030216846FEF7E0FBEF
:101A700014210CA8FEF7DCFB1E480025016841F08C
:101A800080510160006800F0805011901A48016890
:101A900041F4804101600068022400F4804011900C
:101AA00001200090000401908001CDE9064008204B
:101AB00008904FF4A870CDE9090404200B90684603
:101AC000FFF718F908B172B6FEE70CA90F2081E8FC
:101AD00031004FF4A0500F904FF48050109005212A
:101AE0000CA8FFF71DF8002801D072B6FEE713B06E
:101AF00030BD0000403802400070004002480168DC
:101B000041F470010160704788ED00E070B5044653
:101B100000680169E26821F44051114301612169C3
:101B2000A068E26908436169114308432168CA68F3
:101B300049F20C639A430243CA6020684169A26972
:101B400021F440711143416131492068884202D03B
:101B50003049884202D1FFF78DF801E0FFF77AF8AB
:101B6000E2690023192164253226B2F5004F62682C
:101B700028D0A0FB0101930F9200FEF721FB014644
:101B8000B0FBF5F06FF01802504301EB800006EB5C
:101B90000010B0FBF5F000F0F002B1FBF5F002EB45
:101BA0000012B1FBF5F06FF01803584301EB800011
:101BB00006EB0010B0FBF5F000F00F0021681044B8
:101BC000886070BDA0FB010192185B41FEF7F8FA36
:101BD0000146B0FBF5F00201B1FBF5F06FF0180320
:101BE000584301EB800006EBC000B0FBF5F000F0BD
:101BF000F80002EB4002B1FBF5F0584301EB800026
:101C000006EBC000B0FBF5F000F00700D6E70000DF
:101C100000100140001401402DE9F041984617469C
:101C20000E460446069D27E0681C25D02DB1FEF720
:101C3000E3FEA0EB0800A8421ED920680C3050E853
:101C4000001F21F4D07140E80012002AF5D120686D
:101C5000143050E8001F21F0010140E80012002A72
:101C6000F5D1202084F83D0084F83E00002084F85F
:101C70003C000320BDE8F0812068006836EA0000DF
:101C800004D00020B842CFD00020F3E70120F9E7CC
:101C9000FEE700000FB4054B10B503A9044A0298F3
:101CA00000F028F810BC5DF814FB0000491E000885
:101CB0002C0000200907090E002804DB00F1E020B9
:101CC00080F80014704700F00F0000F1E02080F869
:101CD000141D704702E008C8121F08C1002AFAD17B
:101CE00070477047002001E001C1121F002AFBD19C
:101CF000704700002DE9FF4F89B09B460446002540
:101D000006E025280BD05A460B999047641C6D1CA1
:101D100020780028F5D10DB02846BDE8F08F0027C7
:101D2000B8460122474900E0074314F8013F203B31
:101D300002FA03F00842F7D120782E2819D114F8BE
:101D4000010F47F004072A280ED06FF02F022078E9
:101D5000A0F1300109290CD808EB880102EB410100
:101D600000EB0108641CF2E70A98641C50F8048B2D
:101D70000A9020780028CED0642808D0692806D0A0
:101D800075281ED05A460B9990476D1C58E00A9949
:101D90004FF00A0901C90A91002802DA40422D21B8
:101DA00002E0390504D52B218DF82010012103E034
:101DB000F90704D02021F7E78A4608AE0DE000219C
:101DC000FAE70A994FF00A0901C90A91F7E749466B
:101DD000FEF7D1FA303106F8011D0028F7D1ADEB3E
:101DE000060000F12009780701D44FF00108C8452A
:101DF00002DDA8EB090000E000208046002706E095
:101E000008A85A46C05D0B9990476D1C7F1C57452A
:101E1000F6DB04E030205A460B9990476D1CB8F170
:101E20000001A8F10108F5DC05E016F8010B5A469F
:101E30000B9990476D1CB9F10001A9F10109F4DC7F
:101E4000641C65E70928010013B54FF6FF730122F2
:101E500069460248FFF752FB00981CBD9C00002019
:101E60000024FEF7D7FDFFF7FDFDFFF74BFCFFF762
:101E70002BFCFFF715FDFFF739FD0FA0FFF70AFF59
:101E80004FF47A65FEF728FB0020FFF7E1FB0228FC
:101E900009D00128F6D10BA0FFF7FCFEC82C09D908
:101EA000C83CA4B2EEE70AA0FFF7F4FEAC42E9D2C8
:101EB000C834F6E70024E5E748414C5F54455354E5
:101EC0000D0A00004B4559305F505553480D0A002C
:101ED0004B4559315F50555348200D0A0000000012
:101EE00000000000000000000102030406070809CA
:101EF0000000000001020304181F00080000002079
:101F000030000000D41C0008481F000830000020EA
:101F1000B0040000E41C0008000000000000000005
:101F200000000000000000000000000000000000B1
:101F3000010000000100000010000000000000008F
:081F40000024F4000000000081
:040000050800018965
:00000001FF
