:020000040800F2
:1000000090070020F90C0008410400084304000890
:10001000470400084B0400084F04000800000000DB
:100020000000000000000000000000005304000871
:100030005504000800000000570400085904000897
:10004000130D0008130D0008130D0008130D000810
:10005000130D0008130D0008130D0008130D000800
:10006000130D0008130D0008130D0008130D0008F0
:10007000130D0008130D0008130D0008130D0008E0
:10008000130D0008130D0008130D0008130D0008D0
:10009000130D0008130D0008130D0008130D0008C0
:1000A000130D0008130D0008130D0008130D0008B0
:1000B000130D0008130D0008130D0008130D0008A0
:1000C000130D0008130D0008130D0008130D000890
:1000D000130D00086F0C0008130D0008130D000825
:1000E000130D0008130D0008130D0008130D000870
:1000F000130D0008130D0008130D0008130D000860
:10010000130D0008130D0008130D0008130D00084F
:10011000130D0008130D0008130D0008130D00083F
:10012000130D0008130D0008130D0008130D00082F
:10013000130D0008130D0008130D0008130D00081F
:10014000130D0008130D0008130D0008130D00080F
:10015000130D0008130D0008130D0008130D0008FF
:10016000130D0008130D0008130D0008130D0008EF
:10017000130D0008130D0008130D0008130D0008DF
:10018000130D0008130D000800F002F800F044F809
:100190000AA090E8000C82448344AAF10107DA45E2
:1001A00001D100F039F8AFF2090EBAE80F0013F0F0
:1001B000010F18BFFB1A43F0010318476422000027
:1001C00084220000103A24BF78C878C1FAD85207B8
:1001D00024BF30C830C144BF04680C6070470000C1
:1001E0000023002400250026103A28BF78C1FBD840
:1001F000520728BF30C148BF0B607047642901F027
:100200002387782901F05C87002070471FB502F032
:10021000E4F81FBD10B510BD02F0A6F81146FFF7B7
:10022000F5FF00F09DF802F0C4F803B4FFF7F2FF09
:1002300003BC00F0BDFC000070B5002424E02046A3
:1002400000F01DFC604921F81400084630F91450F4
:100250005E48007858B941F28830684347F6FF712C
:1002600090FBF1F000B25A4921F814000AE042F282
:100270001070684347F6FF7190FBF1F000B25449EB
:1002800021F81400601CC4B2082CD8DB70BD2DE925
:10029000FF4700245CE04E4830F914504A4830F9DA
:1002A000140000282BDA684205B20A2095FBF0F111
:1002B00000FB1156642095FBF0F100FB11500A2160
:1002C00090FBF1F74FF47A7095FBF0F100FB1150C1
:1002D000642190FBF1F84FF47A7095FBF0F93A48FD
:1002E000CDE90098CDE9027630F8140083B23648A3
:1002F00030F91420611C37A001F072FE26E00A20BC
:1003000095FBF0F100FB1156642095FBF0F100FB2A
:1003100011500A2190FBF1F74FF47A7095FBF0F140
:1003200000FB1150642190FBF1F84FF47A7095FBBB
:10033000F0F92548CDE90098CDE9027630F914307E
:1003400030F91420611C2DA001F04AFE601C04B29B
:10035000082CA0DB082133A001F042FEBDE8FF8796
:1003600000254FF4A06000F0E7FCA82000F09EFB01
:100370004FF4E13000F029FC00F078F900F096F934
:1003800000F02CFB1EE0002000F0AFF90446022C28
:1003900008D126A001F024FE00F047FBFFF74CFF38
:1003A000FFF775FF681C85B20A2000F0E1FB142DF1
:1003B00008D12248006808B9012000E000201F4948
:1003C00008600025DFE70000440000201500002041
:1003D000340000202043482564203D202536642C2D
:1003E00030782530345820282D25642E2564256446
:1003F0002564205629200D0A0000000020434825CE
:1004000064203D202536642C30782530345820284F
:100410002025642E256425642564205629200D0A94
:10042000000000001B5B2564410000006765745FED
:100430006164633A2F722F6E00000000B4024342E1
:10044000704700BFFEE700BFFEE700BFFEE700BF4A
:10045000FEE7704770477047704700000CB50020FA
:10046000019000907648006840F48030744908603C
:1004700000BF7348006800F4003000900198401CF1
:100480000190009818B90198B0F5A04FF1D16C48CF
:10049000006800F4003010B10120009001E000205D
:1004A00000900098012846D165484030006840F02F
:1004B00080506349403108606248006840F4404021
:1004C000604908605E48083000685D49083108608E
:1004D0000846006840F4004008600846006840F4A0
:1004E000A05008605848091F0860081F006840F0C5
:1004F0008070091F086000BF5148006800F000705C
:100500000028F9D040F20570504908604C48083086
:10051000006820F003004A49083108600846006876
:1005200040F00200086000BF45480830006800F055
:100530000C000828F8D10CBD10B54548006840F4FF
:100540007000434908603E48006840F001003C49A3
:10055000086000203A4908310860394800683D4980
:100560000840374908603C48091D0860081F0068BA
:1005700020F48020091F0860002031490C310860F8
:10058000FFF76CFF4FF0006031498039086010BD03
:1005900070B500200022022300240221284D0835D6
:1005A0002D6805F00C0020B1042806D0082834D1AD
:1005B00007E02A4D2A4E356033E02A4D284E35603B
:1005C0002FE01F4D2D1D2D68C5F380541C4D2D1D92
:1005D0002D6805F03F0154B1224DB5FBF1F5184EE1
:1005E000361D3668C6F3881605FB06F209E01B4D7A
:1005F000B5FBF1F5124E361D3668C6F3881605FBBD
:1006000006F20F4D2D1D2D68C5F301456D1C6B00C5
:10061000B2FBF3F5124E356003E0104D104E35601D
:1006200000BF00BF064D08352D68C5F303150E4EFB
:10063000705D0B4D2D68C540094E356070BD0000E2
:10064000003802400070004008544007003C02405F
:1006500088ED00E0FFFFF6FE103000240024F400D7
:100660000000002000127A00040000201CB50121C7
:10067000402000F0F5FE4FF4C040009001208DF8BE
:10068000040000208DF8060003208DF805000120ED
:100690008DF807006946044800F044FC4FF4C0415F
:1006A000014800F0BBFC1CBD001802401CB5012134
:1006B000212000F0D5FE4FF4E070009000208DF86E
:1006C000040003208DF8050001208DF8070069461D
:1006D000364800F027FC0120009002208DF807002A
:1006E0006946334800F01EFC1CBD10B5044614B129
:1006F0000120304908702F480078002839D0402167
:100700002A4800F071FC80B18021284800F06CFC80
:1007100058B14FF48071254800F066FC28B10121E2
:10072000234800F061FC012823D10A2000F020FAC0
:1007300000202049087040211C4800F055FC08B9F1
:10074000012010BD8021194800F04EFC08B902209C
:10075000F7E74FF48071154800F046FC08B9032014
:10076000EFE70121124800F03FFC01281BD10420D3
:10077000E7E740210D4800F037FC012813D1802124
:100780000A4800F031FC01280DD10102074800F0B1
:100790002BFC012807D10121054800F025FC10B9E8
:1007A0000120044908700020CBE70000001402403B
:1007B000000002401400002010B5044600BF0221D2
:1007C0004E4801F0B1F90028F9D021464B4801F01C
:1007D00062F900BF0121494801F0A6F90028F9D0CB
:1007E000464801F055F9C0B210BD00B587B00121EF
:1007F000084600F035FE0121080300F08BFEE020E2
:10080000059002208DF8180000208DF81A000320B2
:100810008DF8190001208DF81B0005A9384800F05B
:1008200081FB05221146364800F007FC052206210F
:10083000334800F002FC05220721314800F0FDFB9F
:100840000121080300F0BBFE00214FF4805000F0AE
:10085000B6FE0020ADF800004FF48270ADF8020043
:100860000020ADF804000220ADF806000120ADF82C
:1008700008004002ADF80A002820ADF80C00002066
:10088000ADF80E000720ADF8100069461B4800F0D7
:1008900087FF0121194801F07DF8FF20FFF78CFF49
:1008A00007B000BD10B50446144800884FF6C77164
:1008B000084012490880084600882043088001212A
:1008C0000E4801F067F810BD10B500BF02210B48BB
:1008D00001F02AF90028F9D00021084801F0DBF8DE
:1008E00000BF0121054801F01FF90028F9D0034895
:1008F00001F0CEF8C4B2204610BD00000030014027
:100900000000024010B54FF40051644800F088FB2D
:100910004FF40051614800F081FB4FF400515F48F3
:1009200000F07CFB4FF400515C4800F077FB4FF483
:1009300000515A4800F072FB4FF40051574800F044
:100940006FFB10BD10B504462CB94FF480615448BC
:1009500000F066FB04E04FF48061514800F05EFB5C
:1009600010BD1CB50121122000F07AFD01208DF888
:10097000040000208DF806008DF8070003208DF894
:1009800005004FF4005000906946444800F0CAFA50
:100990004FF4004000906946404800F0C3FA4FF41D
:1009A0008060009069463E4800F0BCFA4FF4006059
:1009B00000906946394800F0B5FA00208DF804002F
:1009C0008DF806008DF8070002208DF80500400222
:1009D00000906946314800F0A5FA1CBD10B5FFF73C
:1009E00004FFFFF7BEFF2F490878FFF7ABFFFFF7C3
:1009F00089FF4FF40041294800F010FB10BD10B5ED
:100A00004FF40041254800F00BFB4FF40041234810
:100A100000F006FB4FF40041204800F001FB4FF4CA
:100A200000411E4800F0FAFA10BD10B54FF4806185
:100A30001A4800F0D9FA08BB4FF40061174800F0DB
:100A4000EFFA002411E0FFF73FFF174921F81400E7
:100A5000FFF73AFF144911F8141000EB012000B21F
:100A6000114921F81400601CC4B2082CEBDB4FF4D0
:100A700000610A4800F0D2FAFFF7C1FF10BD01463D
:100A8000012080F3108800BF074830F911200020B2
:100A900080F3108800BF104670470000001002402D
:100AA00000040240150000205400002010B5044648
:100AB0006FF0040000F092F9E11704EB5171C1F3FB
:100AC000C701394A11701046007800EB4001C1EBB4
:100AD000C0104FF6FF7101EAC0003449088010BD14
:100AE0000146314A12784A434FF0E0235A6100220E
:100AF0009A611A46126942F001021A6100BF4FF072
:100B0000E022106900F001021AB100F48032002ADC
:100B1000F5D04FF0E022126922F001024FF0E023FD
:100B20001A6100229A6170470146204A12884A439E
:100B30004FF0E0235A6100229A611A46126942F08E
:100B400001021A6100BF4FF0E022106900F00102BB
:100B50001AB100F48032002AF5D04FF0E022126979
:100B600022F001024FF0E0231A6100229A617047DF
:100B700070B504464FF4077094FBF0F0C6B24FF422
:100B8000077094FBF0F100FB114085B205E04FF4D3
:100B90000770FFF7C9FF701EC6B2002EF7D115B15E
:100BA0002846FFF7C1FF70BD160000201800002086
:100BB00000BF704700BF4C4A128802F04002002A72
:100BC000F9D0C2B2484B9A80704710B588B004463D
:100BD0000121084600F044FC0121102000F09AFC9D
:100BE00007220921414800F028FA07220A213F483C
:100BF00000F023FA4FF4C060069002208DF81C002C
:100C00008DF81D0000208DF81E0001208DF81F00BA
:100C100006A9364800F086F902940020ADF80C00D1
:100C2000ADF80E00ADF81000ADF814000C20ADF8D2
:100C3000120002A92C4801F00EF801212A4801F007
:100C400092F8012240F22551274801F042F925206F
:100C50008DF8040003208DF805008DF806000120B2
:100C60008DF8070001A800F06CF808B010BD10B5B1
:100C700040F225511C4801F067F910B31A4801F001
:100C8000A1F8C4B21A48008800F40040C8B9184856
:100C9000008800F4804060B10A2C03D00020144981
:100CA000088020E01248008840F400401049088085
:100CB00019E00D2C06D10E48008840F480400C4904
:100CC000088010E00A480088C0F30D0009490C5460
:100CD00007480088401C0649088008460088C72845
:100CE00001DD0020088010BD00100140000002401E
:100CF0002000002064000020094880470948004780
:100D0000FEE7FEE7FEE7FEE7FEE7FEE7FEE7FEE7BB
:100D1000FEE7FEE704480549054A064B7047000018
:100D20003905000889010008900100209007002083
:100D3000900300209003002032490143324A1160A1
:100D4000704770B5002100230F22C4781CB32E4CCD
:100D5000246804F4E064C4F5E064C4F30721C1F13D
:100D60000404E3B20A4144789C40E1B28478144020
:100D700021430C07210E254C05786155047804F0B9
:100D80001F050124AC4005786D11AD0005F1E0258B
:100D9000C5F8004109E0047804F01F050124AC40C7
:100DA0001B4D0678761145F8264070BD194A0A4059
:100DB0000243154B1B1F1A60704739B1124A121DAE
:100DC00012680243104B1B1D1A6006E00E4A121DEA
:100DD000126882430C4B1B1D1A607047042808D10F
:100DE0004FF0E021096941F004014FF0E022116168
:100DF00007E04FF0E021096921F004014FF0E02203
:100E0000116170470000FA050CED00E000E400E01D
:100E100080E100E080FFFF1F10B50446984884423F
:100E200008D10121084600F086FB0021012000F0D6
:100E300082FB76E09348844208D10121022000F031
:100E40007AFB0021022000F076FB6AE08E488442A3
:100E500008D10121042000F06EFB0021042000F0E5
:100E60006AFB5EE08948844208D10121082000F035
:100E700062FB0021082000F05EFB52E084488442BF
:100E800008D10121102000F056FB0021102000F0B5
:100E900052FB46E07F48844208D10121202000F027
:100EA0004AFB0021202000F046FB3AE07A488442C9
:100EB00008D10121402000F03EFB0021402000F03D
:100EC0003AFB2EE07548844208D10121802000F0D1
:100ED00032FB0021802000F02EFB22E0704884428B
:100EE00008D10121801500F026FB0021A01500F09B
:100EF00022FB16E06B48844208D10121401500F026
:100F00001AFB0021601500F016FB0AE066488442D7
:100F100007D10121001500F00EFB0021201500F083
:100F20000AFB10BDF0B50A4600210023002400BFD3
:100F30003DE0012505FA01F3156805EA03049C422A
:100F400034D105684F000326BE40B54305601579CE
:100F50004E00B5400668354305601579012D02D075
:100F60001579022D16D185684F000326BE40B54382
:100F7000856055794E00B540866835438560456883
:100F800001268E40B5434560456896798E40B6B2DD
:100F900035434560C5684F000326BE40B543C56074
:100FA000D5794E00B540C6683543C560491C102947
:100FB000BFD3F0BD4FF6FF71016000210171417197
:100FC0008171C171704708B54FF480320092009A68
:100FD0000A430092009AC261C161009AC261C2696B
:100FE0000092C269009208BD0246002013690B40BE
:100FF0000BB1012000E0002070470146086980B273
:1010000070470246002053690B400BB1012000E0FD
:10101000002070470146486980B2704701837047DD
:10102000418370470AB1018300E041837047416109
:10103000704742694A4042617047F0B5002300247E
:101040004D07ED0E02FA05F3CE1000F1200555F81C
:1010500026504E07F70E0F26BE40B543CF1000F1C5
:10106000200646F82750CE1000F1200555F82650EE
:1010700045EA0304CE1000F1200545F82640F0BDF6
:10108000000002400004024000080240000C024040
:10109000001002400014024000180240001C0240F0
:1010A000002002400024024000280240F948006865
:1010B00040F00100F74908600020F6490831086057
:1010C000F4480068F4490840F2490860F348091DF3
:1010D0000860F348EF4984310860F0481038091D72
:1010E0000860EC48006820F48020EA49086000208D
:1010F000E8490C310860E7498C31086070470021ED
:10110000E44A921C117011460870704710B50146F0
:101110000022002300204A11012A02D1DD4C23685D
:1011200008E0022A03D1DB4C7034236802E0D94C7A
:101130007434236801F01F02012494401C400CB158
:10114000012000E0002010BD38B5002000900024F0
:10115000002500BF3120FFF7D9FF05460098401C4D
:1011600000900098B0F5A04F01D0002DF2D03120B2
:10117000FFF7CCFF08B1012400E00024204638BD71
:1011800001460020C34A106820F0F80040EAC10080
:1011900010607047C349086070470021BD4A703233
:1011A00011701170012802D004280AD104E0012135
:1011B000B84A7032117005E00521B64A70321170DC
:1011C00000E000BF00BF7047B7490860704770B5C6
:1011D000049C41EA82150126C6EB530645EA064502
:1011E000054345EA0465AB4E361D356070BDAD491B
:1011F00008667047820142EA0172A64B84331A6086
:101200007047A8498866704710B5830143EA0163B7
:1012100043EA02739F4C8834236010BDA1490867DC
:101220007047A049C864704702460020994B0833B4
:10123000186820F0EC6042EA01031843954B08332C
:101240001860704702460020924B0833186820F05F
:10125000784042EA010318438E4B08331860704708
:10126000014600208B4A0832106820F00300084332
:101270001060704787480830006800F00C00704725
:1012800001460020834A0832106820F0F00008432D
:1012900010607047014600207E4A0832106820F432
:1012A000E05008431060704701460020794A083238
:1012B000106820F4604040EAC10010607047F0B54B
:1012C000002100220024022500260223714F083746
:1012D0003F6807F00C0121B1042905D0082937D156
:1012E00005E0724F076036E0714F076033E0694FE9
:1012F0003F1D3F68C7F38056664F3F1D3F6807F0AC
:101300003F036EB16A4FB7FBF3F7DFF888C10CF10A
:10131000040CDCF800C0CCF3881C07FB0CF40CE0D8
:10132000624FB7FBF3F7DFF86CC10CF1040CDCF88B
:1013300000C0CCF3881C07FB0CF4564F3F1D3F68E0
:10134000C7F301477F1C7D00B4FBF5F7076002E09F
:10135000564F076000BF00BF4E4F08373F6807F089
:10136000F0010909534F7A5C0768D7404760494F3D
:1013700008373F6807F4E051890A4E4F7A5C4768A6
:10138000D7408760434F08373F6807F46041490BF7
:10139000484F7A5C4768D740C760F0BD002100F431
:1013A0004072B2F5407F0AD13A4A0832116821F4FE
:1013B000F811414A02401143364A08321160354A59
:1013C00070321268C0F30B031A43324B70331A6049
:1013D00070473549443908607047334940390860DF
:1013E000704736490860704701460020294A8C3210
:1013F000106820F01F004A1E1043264A8C321060ED
:10140000704701460020234A8C32106820F4F850BF
:101410004A1E40EA02201F4A8C3210607047014683
:1014200000201C4A8C32106820F4401008431060E1
:10143000704701460020174A8C32106820F44000A3
:1014400008431060704701460020124A8C32106831
:1014500020F4403008431060704719490860704715
:1014600039B10C4A3032126802430A4B30331A60E9
:1014700006E0084A303212688243064B30331A6065
:101480007047F9B1034A343212680243014B3433D6
:101490001A601CE000380240FFFFF6EA103000241A
:1014A0000030002000004742800E47420024F40034
:1014B00000127A0022000020FFFCFF0F5C0147426F
:1014C000E01147428F4A126882438E4B1A60704780
:1014D00039B18C4A121D126802438A4B1B1D1A60D7
:1014E00006E0884A121D12688243864B1B1D1A6053
:1014F000704739B1834A0C3212680243814B0C3376
:101500001A6006E07F4A0C32126882437D4B0C332E
:101510001A60704739B17B4A103212680243794B26
:1015200010331A6006E0774A103212688243754B16
:1015300010331A60704739B1724A243A1268024374
:10154000704B243B1A6006E06E4A243A12688243CC
:101550006C4B243B1A60704739B16A4A203A1268D2
:101560000243684B203B1A6006E0664A203A126844
:101570008243644B203B1A60704739B1614A1C3A80
:10158000126802435F4B1C3B1A6006E05D4A1C3A3E
:10159000126882435B4B1C3B1A60704739B1594A51
:1015A000143A12680243574B143B1A6006E0554A3E
:1015B000143A12688243534B143B1A60704739B196
:1015C000504A103A126802434E4B103B1A6006E034
:1015D0004C4A103A126882434A4B103B1A607047DB
:1015E00039B1484A1C3212680243464B1C331A6018
:1015F00006E0444A1C3212688243424B1C331A6094
:10160000704739B13F4A2032126802433D4B2033C4
:101610001A6006E03B4A203212688243394B20337D
:101620001A60704739B1374A243212680243354B89
:1016300024331A6006E0334A243212688243314B65
:1016400024331A60704739B12E4A2C321268024393
:101650002C4B2C331A6006E02A4A2C321268824343
:10166000284B2C331A60704739B1264A3032126841
:101670000243244B30331A6006E0224A30321268AB
:101680008243204B30331A607047012808D11D492E
:101690003C31096841F008011A4A3C32116007E008
:1016A00018493C31096821F00801164A3C321160A2
:1016B000704739B1134A273A12780243114B273B3E
:1016C0001A7006E00F4A273A127882430D4B273BE7
:1016D0001A7070470B484030006840F0807009492C
:1016E00040310860704701460020064A283A1268D7
:1016F0000A400AB1012000E0002070470149263964
:10170000087070473438024010B50446FB488442E4
:1017100008D101218014FFF752FF0021A014FFF728
:101720004EFF3CE0F648844208D101210014FFF747
:1017300035FF00212014FFF731FF30E0F1488442EB
:1017400008D10121C013FFF729FF0021E013FFF7A3
:1017500025FF24E0EC48844208D101214014FFF722
:101760002EFF00216014FFF72AFF18E0E7488442AB
:1017700009D101210805FFF722FF00214FF4801055
:10178000FFF71DFF0BE0E248844208D10121480524
:10179000FFF715FF00214FF40010FFF710FF10BDF9
:1017A00010B50022028802F441520B884C88234372
:1017B0008C882343CC8823430C8923434C892343BF
:1017C0008C892343CC8923431A430280838B4FF2B5
:1017D000FF74234083830B8A038210BD2DE9F04FF1
:1017E0000025022300244FF00109002200260027D3
:1017F00094469046B0F81CA04FF2400B0AEA0B0A40
:10180000A0F81CA04FF0020AA0F820A0858BD1F808
:1018100008A0BAF1020F01D100BF82E0B1F804A024
:10182000BAF1000F02D14FF0010901E04FF00209B7
:10183000DFF8E0A2DAF800A00AF4000ABAF1000F1B
:1018400009D0DFF8D0A2DAF800A02AF4000ADFF805
:10185000C4B2CBF800A0DFF8BCA20AF17C0ADAF827
:1018600000A0CAF3881CDFF8ACA20AF17C0ADAF8FF
:1018700000A0CAF30278DFF89CA2AAF1040ADAF801
:1018800000A00AF03F07DFF88CA2AAF1040ADAF8F8
:1018900000A00AF4800ABAF5800F08D1DFF878A218
:1018A000BAFBF7FA0AFB0CFABAFBF8F607E0DFF826
:1018B0006CA2BAFBF7FA0AFB0CFABAFBF8F6B1F81D
:1018C00006A0BAF5007F0ED14FEA162A0AEB8A0A63
:1018D0004FEA4A0AD1F808B0BAFBFBFA0AF1050A46
:1018E0001FFA8AF20FE04FEA491AB6FBFAFA0AEB3E
:1018F0008A0A4FEA4A0AD1F808B0BAFBFBFA0AF1A1
:10190000050A1FFA8AF24FF00A0AB2FBFAF202F055
:101910000104A2EB040ACAF34F034FF6FF7A0AEA66
:101920000424022B01DBFF2B01DD02230024B1F88C
:1019300006A04AEA040A4AEA030AA0F820A0B1F87D
:1019400004A0B1F80CB04AEA0B0AB1F802B04AEAB6
:101950000B0AB1F800B04AEA0B0A4AF4006A4AEAF4
:1019600005058583BDE8F08F0021018041808180DD
:10197000C180018141818181C1810721018270473C
:101980000021018041808180C1800221816000218D
:101990008181704721B1028842F04002028004E058
:1019A00002884FF6BF731A400280704721B1828BC4
:1019B00042F48062828304E0828B4FF6FF331A4048
:1019C0008283704702884FF2FF731A4002800288B8
:1019D0000A4302807047B1F5804F04D1028842F477
:1019E0008042028004E002884BF6FF731A400280B6
:1019F00070474FF6FF62914204D0028842F4807231
:101A0000028004E002884FF6FF631A4002807047AC
:101A100021B1828842F00402828004E082884FF67D
:101A2000FB731A408280704721B1828842F0100215
:101A3000828004E082884FF6EF731A4082807047FC
:101A400030B500220023848B4FF240052C40848364
:101A500002240484828B0C88B4F5007F01D00C88AA
:101A600014B94FF4807308E00C88B4F5407F03D0BC
:101A70000C88B4F5807F00D100238C888D892C439D
:101A80004D882C431C4344F400642243828330BDC0
:101A90000146888970478181704721B1028842F4EC
:101AA0000052028004E002884DF6FF731A40028063
:101AB0007047018841F48051018070470246002040
:101AC000012901D0108B00E0908A70470146088AF6
:101AD00070471AB183880B43838002E083888B436D
:101AE0008380704730B5002400230C110125A540E8
:101AF000ABB2AAB185881D43858014E00030014057
:101B000000380040003C00400034014000500140DB
:101B1000005401400838024000127A000024F4000A
:101B200085889D43858030BD0246002013890B4087
:101B30000BB1012000E000207047CA4302817047CA
:101B4000F0B50246002000240023002501F00F0715
:101B50000126BE40B4B20B1101269E40B3B2968856
:101B600006EA03051689264016B10DB1012000E0F2
:101B70000020F0BD10B5002201F00F040123A340A6
:101B80009AB2D343038110BD10B50446FA4884428B
:101B900008D101211020FFF712FD00211020FFF7CE
:101BA0000EFD57E0F548844209D101214804FFF7B2
:101BB000F5FC00214FF40030FFF7F0FC4AE0F0485C
:101BC000844209D101218804FFF7E8FC00214FF489
:101BD0008020FFF7E3FC3DE0EA48844209D101217F
:101BE000C804FFF7DBFC00214FF40020FFF7D6FC10
:101BF00030E0E548844209D101210805FFF7CEFC19
:101C000000214FF48010FFF7C9FC23E0DF48844235
:101C100008D101212020FFF7D2FC00212020FFF76E
:101C2000CEFC17E0DA48844209D101218807FFF78A
:101C3000B5FC00214FF08040FFF7B0FC0AE0D5482A
:101C4000844207D101214005FFF7A8FC002160056F
:101C5000FFF7A4FC10BD2DE9FF4705460E46002402
:101C6000A14600BFA046B08900B100BF2C8A24F471
:101C70004054F08804432C82AC8941F20C608443C8
:101C8000B08831890843718908430443AC81AC8A28
:101C900024F44074B0890443AC826846FFF70FFB1C
:101CA000B548854202D0B948854202D1DDF80C9092
:101CB00001E0DDF80890A88900F4004040B109EB8C
:101CC000C90000EB091031684900B0FBF1F707E0EB
:101CD00009EBC90000EB091031688900B0FBF1F78E
:101CE0006420B7FBF0F004012009642101FB1078A7
:101CF000A88900F4004040B1322000EBC800B0FBDE
:101D0000F1F000F00700044308E0322000EB081077
:101D10006421B0FBF1F000F00F0004432C81BDE81A
:101D2000FF874FF41651016000218180C18001813D
:101D30000C21418100218181704710B502460020AD
:101D4000108A20F470600B884C8823438C882343CE
:101D5000CC8823431843108210BD002101804180AC
:101D60008180C180704721B1828942F40052828112
:101D700004E082894DF6FF731A4082817047028B1E
:101D800002F47F420283028B0A430283704721B12F
:101D9000828942F40042828103E08289C2F30E020A
:101DA0008281704721B1828A42F40062828204E01B
:101DB000828A4FF2FF731A4082827047C1F3080291
:101DC0008280704701468888C0F308007047028A05
:101DD0004FF6F0731A400282028A0A430282704769
:101DE00021B1828942F00202828104E082894FF6A9
:101DF000FD731A408281704782894FF2FF731A4047
:101E0000828182890A4382817047028A4FF6DF739A
:101E10001A400282028A0A430282704721B1028A72
:101E200042F48042028204E0028A4BF6FF731A40B9
:101E300002827047818941F001018181704721B19F
:101E4000828A42F00802828204E0828A4FF6F773A7
:101E50001A4082827047028BD2B20283028B42EA1E
:101E600001220283704721B1828A42F020028282DD
:101E700004E0828A4FF6DF731A408282704721B1F4
:101E8000828A42F01002828204E0828A4FF6EF7367
:101E90001A4082827047828A4FF6FB731A40828210
:101EA000828A0A438282704721B1828A42F002020A
:101EB000828204E0828A4FF6FD731A408282704764
:101EC0001AB1838A0B43838202E0838A8B43838225
:101ED0007047F0B50346002400260025002040F698
:101EE0006A17B94200D100BF1846C1F3421401F08D
:101EF0001F06012707FA06F5012C01D10C3004E07A
:101F0000022C01D1103000E014301AB107682F43C1
:101F1000076002E00768AF430760F0BD024600209B
:101F2000B1F5007F00D100BF13880B400BB1012039
:101F300000E00020704701F40072B2F5007F00D18C
:101F400000BFCA430280704770B5024600240023D8
:101F50000025002040F66A16B14200D100BFC1F34F
:101F6000421501F01F03012606FA03F3012D13D1D8
:101F70009689334017E00000001001400044004003
:101F800000480040004C0040005000400014014058
:101F900000780040007C0040022D02D1168A3340B8
:101FA00001E0968A33400C12012606FA04F41688E2
:101FB000344013B10CB1012000E0002070BD10B519
:101FC0000022002340F66A14A14200D100BF0A1289
:101FD00001249440A3B2DC43048010BD704700008C
:101FE0000FB4044910B503AA029800F08FF910BC91
:101FF0005DF814FB1C00002070B50446856900687C
:10200000C10601D5302600E02026C00707D070BDEC
:10201000D4E9012130469047206A401C20626D1EA1
:10202000F6D570BD70B5044685690078C00707D144
:1020300070BDD4E9012120209047206A401C206215
:102040006D1EF6D570BD00002DE9F0410646002456
:1020500010687529314616A510D0AFF3008000280E
:1020600002DA404213A507E031688A0701D512A5BC
:1020700002E0490704D511A5012401E0AFF3008077
:1020800000210A2206F1240709E0B0FBF2FCB0FBB4
:10209000F2F302FB1C00303078541846491C00282B
:1020A000F3D123462A463046BDE8F04100F0D4B8CB
:1020B000000000002D0000002B00000020000000A8
:1020C00070B504460D4621461068AFF300802188A4
:1020D000090502D50F4A7A4402E00E4A7A440E32CC
:1020E000002104F1240305E000F00F060009965DCD
:1020F0005E54491C0028F7D120780023000704D53E
:10210000702D02D009B1022311322046BDE8704083
:1021100000F0A2B80A0300002DE9F05F89460446EA
:102120004FF0000ADFF824B1FB44C0F820A020469D
:10213000E168884700287DD0252806D0D4E9012110
:102140009047206A401C2062F1E700255F46204648
:10215000E16888472028064607DB312E05D2B819EA
:1021600010F8200C08B10543F1E7A80701D525F0C8
:102170000405C4F81CA00027C4F818A02A2E09D012
:10218000304600F023F938B304EB8708303EC8F836
:10219000186019E059F8041B204604EB870291618E
:1021A000E1688847012F064618D1E069002820DA47
:1021B00025F020051DE0D8F8180000EB800006EBA4
:1021C00040003038C8F818002046E16888470646C5
:1021D00000F0FCF80028EED1012F0AD02E2E08D1F5
:1021E0002046E16888477F1C0646022F45F02005FF
:1021F000C4DBA069002803DA404245F00105A06174
:10220000E80701D025F01005A6B1A6F14100192874
:1022100002D8203645F400654A46314620462560FE
:102220004D46FDF7EBFF60B1012807D0ED1D25F00D
:10223000070000E007E000F1080978E705F104096C
:1022400075E730467AE7206ABDE8F09FE0020000BB
:1022500070477047704770472DE9F0470D46994623
:102260009246044600F124080168880604D5E06916
:1022700021F01001216000E00120A84201DD471B90
:1022800000E00027A1697A1902EB0900081AA06191
:102290002078C00602D42046FFF7AEFE002608E0F4
:1022A000D4E901211AF806009047206A401C761CE8
:1022B00020624E45F4DB2078C0060AD52046FFF7A1
:1022C0009BFE06E0D4E9012130209047206A401CA3
:1022D0002062381EA7F10107F4DC07E0D4E90121F0
:1022E00018F805009047206A401C2062281EA5F1BE
:1022F0000105F3DC2046FFF795FE2078000602D5A5
:102300000220BDE8F0870120FBE70000074B70B515
:102310000D467B4400F011F80446284600F020F8F2
:1023200010B14FF0FF3070BD204670BD9FE8FFFF39
:1023300001694A1C02610878704700B58FB0CDE989
:1023400001310021059105497944CDE90310114679
:102350006846FFF7E1FE0FB000BD0000E5FFFFFF9C
:10236000007B00F080007047754600F02BF8AE4609
:1023700005006946534620F00700854618B020B591
:10238000FEF7C8FCBDE820404FF000064FF0000704
:102390004FF000084FF0000B21F00701AC46ACE80D
:1023A000C009ACE8C009ACE8C009ACE8C0098D467A
:1023B000704710B50446AFF300802046BDE81040DA
:1023C000FDF733BF004870472C01002030380A2841
:1023D00001D201207047002070474FF04070E1EEBD
:1023E000100A70473031323334353637383941428C
:1023F0004344454640305800303132333435363767
:102400003839616263646566403078000400000812
:1024100000000000000000020001000010000000A9
:10242000402400080000002034000000C40100081F
:1024300074240008340000205C070000E00100085C
:10244000007A030A000000000000000001020304FB
:10245000060708090100000000000000000000005D
:10246000000000000000010203040102030406074B
:042470000809000057
:040000050800018965
:00000001FF
